{
  "_format": "hh-sol-artifact-1",
  "contractName": "Zetter",
  "sourceName": "contracts/Zetter.sol",
  "abi": [
    {
      "inputs": [],
      "name": "AlreadyClaimed",
      "type": "error"
    },
    {
      "inputs": [],
      "name": "InvalidBeneficiary",
      "type": "error"
    },
    {
      "inputs": [],
      "name": "InvalidHeartbeat",
      "type": "error"
    },
    {
      "inputs": [],
      "name": "InvalidPayloadType",
      "type": "error"
    },
    {
      "inputs": [],
      "name": "InvalidStorageMode",
      "type": "error"
    },
    {
      "inputs": [],
      "name": "MissingCID",
      "type": "error"
    },
    {
      "inputs": [],
      "name": "MissingFHEData",
      "type": "error"
    },
    {
      "inputs": [],
      "name": "NotAuthorized",
      "type": "error"
    },
    {
      "inputs": [],
      "name": "NotClaimable",
      "type": "error"
    },
    {
      "inputs": [],
      "name": "ReentrancyGuard",
      "type": "error"
    },
    {
      "inputs": [],
      "name": "VaultNotFound",
      "type": "error"
    },
    {
      "inputs": [],
      "name": "VaultStillActive",
      "type": "error"
    },
    {
      "inputs": [],
      "name": "ZamaProtocolUnsupported",
      "type": "error"
    },
    {
      "anonymous": false,
      "inputs": [
        {
          "indexed": true,
          "internalType": "address",
          "name": "owner",
          "type": "address"
        },
        {
          "indexed": true,
          "internalType": "uint256",
          "name": "vaultId",
          "type": "uint256"
        },
        {
          "indexed": false,
          "internalType": "address",
          "name": "oldBeneficiary",
          "type": "address"
        },
        {
          "indexed": false,
          "internalType": "address",
          "name": "newBeneficiary",
          "type": "address"
        }
      ],
      "name": "BeneficiaryUpdated",
      "type": "event"
    },
    {
      "anonymous": false,
      "inputs": [
        {
          "indexed": true,
          "internalType": "address",
          "name": "owner",
          "type": "address"
        },
        {
          "indexed": true,
          "internalType": "uint256",
          "name": "vaultId",
          "type": "uint256"
        },
        {
          "indexed": false,
          "internalType": "string",
          "name": "newCID",
          "type": "string"
        }
      ],
      "name": "CIDUpdated",
      "type": "event"
    },
    {
      "anonymous": false,
      "inputs": [
        {
          "indexed": true,
          "internalType": "address",
          "name": "owner",
          "type": "address"
        },
        {
          "indexed": true,
          "internalType": "uint256",
          "name": "vaultId",
          "type": "uint256"
        },
        {
          "indexed": true,
          "internalType": "address",
          "name": "beneficiary",
          "type": "address"
        }
      ],
      "name": "Claimed",
      "type": "event"
    },
    {
      "anonymous": false,
      "inputs": [
        {
          "indexed": true,
          "internalType": "address",
          "name": "owner",
          "type": "address"
        },
        {
          "indexed": true,
          "internalType": "uint256",
          "name": "vaultId",
          "type": "uint256"
        },
        {
          "indexed": false,
          "internalType": "uint256",
          "name": "newHeartbeat",
          "type": "uint256"
        }
      ],
      "name": "HeartbeatUpdated",
      "type": "event"
    },
    {
      "anonymous": false,
      "inputs": [
        {
          "indexed": true,
          "internalType": "address",
          "name": "owner",
          "type": "address"
        },
        {
          "indexed": true,
          "internalType": "uint256",
          "name": "vaultId",
          "type": "uint256"
        },
        {
          "indexed": false,
          "internalType": "uint256",
          "name": "timestamp",
          "type": "uint256"
        }
      ],
      "name": "Pinged",
      "type": "event"
    },
    {
      "anonymous": false,
      "inputs": [
        {
          "indexed": true,
          "internalType": "address",
          "name": "owner",
          "type": "address"
        },
        {
          "indexed": true,
          "internalType": "uint256",
          "name": "vaultId",
          "type": "uint256"
        }
      ],
      "name": "SecretUpdated",
      "type": "event"
    },
    {
      "anonymous": false,
      "inputs": [
        {
          "indexed": true,
          "internalType": "address",
          "name": "owner",
          "type": "address"
        },
        {
          "indexed": true,
          "internalType": "uint256",
          "name": "vaultId",
          "type": "uint256"
        },
        {
          "indexed": true,
          "internalType": "address",
          "name": "beneficiary",
          "type": "address"
        },
        {
          "indexed": false,
          "internalType": "uint256",
          "name": "heartbeat",
          "type": "uint256"
        },
        {
          "indexed": false,
          "internalType": "enum Zetter.PayloadType",
          "name": "payloadType",
          "type": "uint8"
        },
        {
          "indexed": false,
          "internalType": "enum Zetter.StorageMode",
          "name": "storageMode",
          "type": "uint8"
        }
      ],
      "name": "VaultCreated",
      "type": "event"
    },
    {
      "anonymous": false,
      "inputs": [
        {
          "indexed": true,
          "internalType": "address",
          "name": "owner",
          "type": "address"
        },
        {
          "indexed": true,
          "internalType": "uint256",
          "name": "vaultId",
          "type": "uint256"
        }
      ],
      "name": "VaultDeleted",
      "type": "event"
    },
    {
      "inputs": [],
      "name": "MAX_HEARTBEAT",
      "outputs": [
        {
          "internalType": "uint256",
          "name": "",
          "type": "uint256"
        }
      ],
      "stateMutability": "view",
      "type": "function"
    },
    {
      "inputs": [],
      "name": "MIN_HEARTBEAT",
      "outputs": [
        {
          "internalType": "uint256",
          "name": "",
          "type": "uint256"
        }
      ],
      "stateMutability": "view",
      "type": "function"
    },
    {
      "inputs": [
        {
          "internalType": "address",
          "name": "_owner",
          "type": "address"
        },
        {
          "internalType": "uint256",
          "name": "_vaultId",
          "type": "uint256"
        },
        {
          "internalType": "address",
          "name": "_claimer",
          "type": "address"
        }
      ],
      "name": "canClaim",
      "outputs": [
        {
          "internalType": "bool",
          "name": "",
          "type": "bool"
        }
      ],
      "stateMutability": "view",
      "type": "function"
    },
    {
      "inputs": [
        {
          "internalType": "address",
          "name": "_owner",
          "type": "address"
        },
        {
          "internalType": "uint256",
          "name": "_vaultId",
          "type": "uint256"
        }
      ],
      "name": "claim",
      "outputs": [],
      "stateMutability": "nonpayable",
      "type": "function"
    },
    {
      "inputs": [],
      "name": "confidentialProtocolId",
      "outputs": [
        {
          "internalType": "uint256",
          "name": "",
          "type": "uint256"
        }
      ],
      "stateMutability": "view",
      "type": "function"
    },
    {
      "inputs": [
        {
          "internalType": "uint256",
          "name": "_heartbeat",
          "type": "uint256"
        },
        {
          "internalType": "address",
          "name": "_beneficiary",
          "type": "address"
        },
        {
          "internalType": "enum Zetter.PayloadType",
          "name": "_payloadType",
          "type": "uint8"
        },
        {
          "internalType": "enum Zetter.StorageMode",
          "name": "_storageMode",
          "type": "uint8"
        },
        {
          "internalType": "externalEuint256",
          "name": "_secret",
          "type": "bytes32"
        },
        {
          "internalType": "bytes",
          "name": "_inputProof",
          "type": "bytes"
        },
        {
          "internalType": "string",
          "name": "_cid",
          "type": "string"
        }
      ],
      "name": "createVault",
      "outputs": [
        {
          "internalType": "uint256",
          "name": "vaultId",
          "type": "uint256"
        }
      ],
      "stateMutability": "nonpayable",
      "type": "function"
    },
    {
      "inputs": [
        {
          "internalType": "uint256",
          "name": "_vaultId",
          "type": "uint256"
        }
      ],
      "name": "deleteVault",
      "outputs": [],
      "stateMutability": "nonpayable",
      "type": "function"
    },
    {
      "inputs": [
        {
          "internalType": "address",
          "name": "_beneficiary",
          "type": "address"
        }
      ],
      "name": "getBeneficiaryVaults",
      "outputs": [
        {
          "internalType": "address[]",
          "name": "owners",
          "type": "address[]"
        },
        {
          "internalType": "uint256[]",
          "name": "vaultIds",
          "type": "uint256[]"
        }
      ],
      "stateMutability": "view",
      "type": "function"
    },
    {
      "inputs": [
        {
          "internalType": "address",
          "name": "_owner",
          "type": "address"
        },
        {
          "internalType": "uint256",
          "name": "_vaultId",
          "type": "uint256"
        }
      ],
      "name": "getCID",
      "outputs": [
        {
          "internalType": "string",
          "name": "",
          "type": "string"
        }
      ],
      "stateMutability": "view",
      "type": "function"
    },
    {
      "inputs": [],
      "name": "getMyBeneficiaryVaults",
      "outputs": [
        {
          "internalType": "address[]",
          "name": "owners",
          "type": "address[]"
        },
        {
          "internalType": "uint256[]",
          "name": "vaultIds",
          "type": "uint256[]"
        }
      ],
      "stateMutability": "view",
      "type": "function"
    },
    {
      "inputs": [
        {
          "internalType": "address",
          "name": "_owner",
          "type": "address"
        }
      ],
      "name": "getOwnerVaults",
      "outputs": [
        {
          "internalType": "uint256[]",
          "name": "vaultIds",
          "type": "uint256[]"
        }
      ],
      "stateMutability": "view",
      "type": "function"
    },
    {
      "inputs": [
        {
          "internalType": "address",
          "name": "_owner",
          "type": "address"
        },
        {
          "internalType": "uint256",
          "name": "_vaultId",
          "type": "uint256"
        }
      ],
      "name": "getSecret",
      "outputs": [
        {
          "internalType": "euint256",
          "name": "",
          "type": "bytes32"
        }
      ],
      "stateMutability": "view",
      "type": "function"
    },
    {
      "inputs": [
        {
          "internalType": "address",
          "name": "_owner",
          "type": "address"
        },
        {
          "internalType": "uint256",
          "name": "_vaultId",
          "type": "uint256"
        }
      ],
      "name": "getTimeUntilClaimable",
      "outputs": [
        {
          "internalType": "uint256",
          "name": "timeRemaining",
          "type": "uint256"
        }
      ],
      "stateMutability": "view",
      "type": "function"
    },
    {
      "inputs": [
        {
          "internalType": "address",
          "name": "_owner",
          "type": "address"
        },
        {
          "internalType": "uint256",
          "name": "_vaultId",
          "type": "uint256"
        }
      ],
      "name": "getVaultDetails",
      "outputs": [
        {
          "internalType": "uint256",
          "name": "heartbeat",
          "type": "uint256"
        },
        {
          "internalType": "uint256",
          "name": "lastPing",
          "type": "uint256"
        },
        {
          "internalType": "address",
          "name": "beneficiary",
          "type": "address"
        },
        {
          "internalType": "bool",
          "name": "claimed",
          "type": "bool"
        },
        {
          "internalType": "bool",
          "name": "isClaimable",
          "type": "bool"
        },
        {
          "internalType": "enum Zetter.PayloadType",
          "name": "payloadType",
          "type": "uint8"
        },
        {
          "internalType": "enum Zetter.StorageMode",
          "name": "storageMode",
          "type": "uint8"
        }
      ],
      "stateMutability": "view",
      "type": "function"
    },
    {
      "inputs": [
        {
          "internalType": "address",
          "name": "_owner",
          "type": "address"
        },
        {
          "internalType": "uint256",
          "name": "_vaultId",
          "type": "uint256"
        }
      ],
      "name": "hasVault",
      "outputs": [
        {
          "internalType": "bool",
          "name": "",
          "type": "bool"
        }
      ],
      "stateMutability": "view",
      "type": "function"
    },
    {
      "inputs": [
        {
          "internalType": "uint256",
          "name": "_vaultId",
          "type": "uint256"
        }
      ],
      "name": "ping",
      "outputs": [],
      "stateMutability": "nonpayable",
      "type": "function"
    },
    {
      "inputs": [
        {
          "internalType": "uint256",
          "name": "_vaultId",
          "type": "uint256"
        },
        {
          "internalType": "address",
          "name": "_newBeneficiary",
          "type": "address"
        }
      ],
      "name": "setBeneficiary",
      "outputs": [],
      "stateMutability": "nonpayable",
      "type": "function"
    },
    {
      "inputs": [
        {
          "internalType": "uint256",
          "name": "_vaultId",
          "type": "uint256"
        },
        {
          "internalType": "uint256",
          "name": "_newHeartbeat",
          "type": "uint256"
        }
      ],
      "name": "setHeartbeat",
      "outputs": [],
      "stateMutability": "nonpayable",
      "type": "function"
    },
    {
      "inputs": [
        {
          "internalType": "uint256",
          "name": "_vaultId",
          "type": "uint256"
        },
        {
          "internalType": "string",
          "name": "_newCID",
          "type": "string"
        }
      ],
      "name": "updateCID",
      "outputs": [],
      "stateMutability": "nonpayable",
      "type": "function"
    },
    {
      "inputs": [
        {
          "internalType": "uint256",
          "name": "_vaultId",
          "type": "uint256"
        },
        {
          "internalType": "externalEuint256",
          "name": "_newSecret",
          "type": "bytes32"
        },
        {
          "internalType": "bytes",
          "name": "_inputProof",
          "type": "bytes"
        }
      ],
      "name": "updateSecret",
      "outputs": [],
      "stateMutability": "nonpayable",
      "type": "function"
    },
    {
      "inputs": [
        {
          "internalType": "address",
          "name": "",
          "type": "address"
        }
      ],
      "name": "vaultCount",
      "outputs": [
        {
          "internalType": "uint256",
          "name": "",
          "type": "uint256"
        }
      ],
      "stateMutability": "view",
      "type": "function"
    }
  ],
  "bytecode": "0x60806040526001600355348015610014575f5ffd5b506100c96100206100ce565b80517f9e7b61f58c47dc699ac88507c4f5bb9f121c03808c5676a8078fe583e464970080546001600160a01b03199081166001600160a01b039384161790915560208301517f9e7b61f58c47dc699ac88507c4f5bb9f121c03808c5676a8078fe583e46497018054831691841691909117905560408301517f9e7b61f58c47dc699ac88507c4f5bb9f121c03808c5676a8078fe583e46497028054909216921691909117905550565b61023d565b604080516060810182525f808252602082018190529181019190915246600103610127575060408051606080820183525f8083526020808401829052928401819052835191820184528082529181018290529182015290565b4662aa36a7036101a6575060408051606080820183525f8083526020808401829052928401528251908101835273f0ffdc93b7e186bc2f8cb3daa75d86d1930a433d81527392c920834ec8941d2c77d188936e1f7a6f49c1279181019190915273be0e383937d564d7ff0bc3b46c51f0bf8d5c311a9181019190915290565b46617a6903610224575060408051606080820183525f8083526020808401829052928401528251908101835273f0ffdc93b7e186bc2f8cb3daa75d86d1930a433d81527392c920834ec8941d2c77d188936e1f7a6f49c1279181019190915273be0e383937d564d7ff0bc3b46c51f0bf8d5c311a9181019190915290565b6040516373cac13b60e01b815260040160405180910390fd5b61254c8061024a5f395ff3fe608060405234801561000f575f5ffd5b506004361061016e575f3560e01c80639038ff80116100d2578063ba80380911610088578063ea8d937711610063578063ea8d93771461033e578063f6dd893014610349578063feaeaf621461035c575f5ffd5b8063ba803809146102e5578063dd82c07114610323578063e9bf53b21461032b575f5ffd5b8063aad3ec96116100b8578063aad3ec961461029c578063b178e559146102af578063b4698188146102d2575f5ffd5b80639038ff8014610257578063a91fade814610276575f5ffd5b80635a47495411610127578063773acdef1161010d578063773acdef1461021b5780638927b0301461022e5780639003280c14610236575f5ffd5b80635a474954146101f55780636203cc6a14610208575f5ffd5b80633a0f555d116101575780633a0f555d146101a257806347b3d12a146101c257806359d3936b146101e2575f5ffd5b80631c846d59146101725780631f76d82c14610187575b5f5ffd5b610185610180366004611e1f565b61036f565b005b61018f603c81565b6040519081526020015b60405180910390f35b6101b56101b0366004611e49565b6104e7565b6040516101999190611e9c565b6101d56101d0366004611eae565b61057e565b6040516101999190611f04565b6101856101f0366004611f5b565b610717565b610185610203366004611faa565b6108d9565b610185610216366004611fc1565b610a34565b610185610229366004611faa565b610b4d565b61018f610c3d565b610249610244366004611e49565b610c4b565b604051610199929190611fe1565b61018f610265366004611e49565b60016020525f908152604090205481565b610289610284366004611eae565b610dae565b6040516101999796959493929190612065565b6101856102aa366004611eae565b610e76565b6102c26102bd3660046120bc565b610ff4565b6040519015158152602001610199565b61018f6102e0366004611eae565b611094565b6102c26102f3366004611eae565b6001600160a01b03919091165f908152602081815260408083209383529290522060040154610100900460ff1690565b610249611119565b61018f610339366004612101565b611272565b61018f63bbf81e0081565b61018f610357366004611eae565b611623565b61018561036a3660046121b9565b61176b565b600354600114610392576040516345f5ce8b60e11b815260040160405180910390fd5b6002600355335f908152602081815260408083208584529091529020600401548290610100900460ff166103d95760405163dee790fb60e01b815260040160405180910390fd5b6001600160a01b03821661040057604051631559b7d760e21b815260040160405180910390fd5b336001600160a01b0383160361042957604051631559b7d760e21b815260040160405180910390fd5b335f908152602081815260408083208684529091529020600481015460ff161561046657604051630c8d9eab60e31b815260040160405180910390fd5b6001810180546001600160a01b038581166001600160a01b031983161790925516610493818533886118bf565b604080516001600160a01b03838116825286166020820152869133917f27784b448ddb1b61a6fd400d3de0be76fcc1e626ea9e2460813b642c3498b02691015b60405180910390a350506001600355505050565b6001600160a01b0381165f908152600160205260409020546060908067ffffffffffffffff81111561051b5761051b612201565b604051908082528060200260200182016040528015610544578160200160208202803683370190505b5091505f5b81811015610577578083828151811061056457610564612215565b6020908102919091010152600101610549565b5050919050565b6001600160a01b0382165f908152602081815260408083208484529091529020600481015460609190610100900460ff166105cc5760405163dee790fb60e01b815260040160405180910390fd5b600160048201546301000000900460ff1660018111156105ee576105ee612041565b1461060c576040516355d4bf8b60e01b815260040160405180910390fd5b60018101546004820154336001600160a01b038088168214931614905f9060ff168061064a575083600201548460030154610647919061223d565b42115b905082158015610661575081801561065f5750805b155b1561067f5760405163ea8e4eb560e01b815260040160405180910390fd5b83600601805461068e90612250565b80601f01602080910402602001604051908101604052809291908181526020018280546106ba90612250565b80156107055780601f106106dc57610100808354040283529160200191610705565b820191905f5260205f20905b8154815290600101906020018083116106e857829003601f168201915b50505050509450505050505b92915050565b60035460011461073a576040516345f5ce8b60e11b815260040160405180910390fd5b6002600355335f908152602081815260408083208784529091529020600401548490610100900460ff166107815760405163dee790fb60e01b815260040160405180910390fd5b335f908152602081815260408083208884529091529020600481015460ff16156107be57604051630c8d9eab60e31b815260040160405180910390fd5b5f60048201546301000000900460ff1660018111156107df576107df612041565b146107fd576040516355d4bf8b60e01b815260040160405180910390fd5b5f600482015462010000900460ff16600181111561081d5761081d612041565b1461083b5760405163d4380c7360e01b815260040160405180910390fd5b5f61087b8686868080601f0160208091040260200160405190810160405280939291908181526020018383808284375f92019190915250611a6892505050565b90506108878133611a75565b5061089181611a87565b5060058201819055426003830155604051879033907f337c5ecd0d46e73e380492c330aaff0782b04f82846a7d4fdca6e8ccd48d625e905f90a3505060016003555050505050565b6003546001146108fc576040516345f5ce8b60e11b815260040160405180910390fd5b6002600355335f908152602081815260408083208484529091529020600401548190610100900460ff166109435760405163dee790fb60e01b815260040160405180910390fd5b335f908152602081815260408083208584529091529020600481015460ff1661097f5760405163359699e560e01b815260040160405180910390fd5b6001810154610998906001600160a01b03163385611a96565b335f90815260208181526040808320868452909152812080546001600160a01b031990811682556001820180549091169055600281018290556003810182905560048101805463ffffffff1916905560058101829055906109fc6006830182611db6565b5050604051839033907f80ecfd2332dc89779338fbe043a540171eef988ea66299b4f7be21ffcd4a9d3f905f90a35050600160035550565b600354600114610a57576040516345f5ce8b60e11b815260040160405180910390fd5b6002600355335f908152602081815260408083208584529091529020600401548290610100900460ff16610a9e5760405163dee790fb60e01b815260040160405180910390fd5b81603c811080610ab1575063bbf81e0081115b15610acf57604051638f1825c960e01b815260040160405180910390fd5b335f908152602081815260408083208784529091529020600481015460ff1615610b0c57604051630c8d9eab60e31b815260040160405180910390fd5b60028101849055426003820155604051848152859033907fe00f3a9d5f4d22dfe10451bb6ad017220c1f6240342ab6c99fc7d9e0db4b6068906020016104d3565b600354600114610b70576040516345f5ce8b60e11b815260040160405180910390fd5b6002600355335f908152602081815260408083208484529091529020600401548190610100900460ff16610bb75760405163dee790fb60e01b815260040160405180910390fd5b335f908152602081815260408083208584529091529020600481015460ff1615610bf457604051630c8d9eab60e31b815260040160405180910390fd5b4260038201819055604051908152839033907fdcc771264ff60ea7e7d5530d00c9e91f464ff8d3f9bcebe874cf0621b651115d9060200160405180910390a35050600160035550565b5f610c46611bd9565b905090565b6001600160a01b0381165f908152600260205260409020805460609182918067ffffffffffffffff811115610c8257610c82612201565b604051908082528060200260200182016040528015610cab578160200160208202803683370190505b5093508067ffffffffffffffff811115610cc757610cc7612201565b604051908082528060200260200182016040528015610cf0578160200160208202803683370190505b5092505f5b81811015610da657828181548110610d0f57610d0f612215565b5f91825260209091206002909102015485516001600160a01b0390911690869083908110610d3f57610d3f612215565b60200260200101906001600160a01b031690816001600160a01b031681525050828181548110610d7157610d71612215565b905f5260205f20906002020160010154848281518110610d9357610d93612215565b6020908102919091010152600101610cf5565b505050915091565b6001600160a01b0382165f9081526020818152604080832084845290915281206004810154829182918291829182918291610100900460ff16610e045760405163dee790fb60e01b815260040160405180910390fd5b80600201548160030154610e18919061223d565b42118015610e2b5750600481015460ff16155b600282015460038301546001840154600490940154919d909c506001600160a01b039093169a5060ff8082169a50919850620100008104821697506301000000900416945092505050565b600354600114610e99576040516345f5ce8b60e11b815260040160405180910390fd5b60026003556001600160a01b0382165f9081526020818152604080832084845290915290206004810154610100900460ff16610ee85760405163dee790fb60e01b815260040160405180910390fd5b60018101546001600160a01b03163314610f155760405163ea8e4eb560e01b815260040160405180910390fd5b600481015460ff1615610f3b57604051630c8d9eab60e31b815260040160405180910390fd5b80600201548160030154610f4f919061223d565b4211610f6e57604051633123d42760e11b815260040160405180910390fd5b5f60048201546301000000900460ff166001811115610f8f57610f8f612041565b03610fa457610fa2816005015433611a75565b505b60048101805460ff19166001179055604051339083906001600160a01b038616907f7e6632ca16a0ac6cf28448500b1a17d96c8b8163ad4c4a9b44ef5386cc02779e905f90a45050600160035550565b6001600160a01b0383165f9081526020818152604080832085845290915281206004810154610100900460ff1661102e575f91505061108d565b600481015460ff1615611044575f91505061108d565b60018101546001600160a01b03848116911614611064575f91505061108d565b80600201548160030154611078919061223d565b4211611087575f91505061108d565b60019150505b9392505050565b6001600160a01b0382165f9081526020818152604080832084845290915281206004810154610100900460ff166110de5760405163dee790fb60e01b815260040160405180910390fd5b5f816002015482600301546110f3919061223d565b9050804210611106575f92505050610711565b6111104282612288565b95945050505050565b335f908152600260205260409020805460609182918067ffffffffffffffff81111561114757611147612201565b604051908082528060200260200182016040528015611170578160200160208202803683370190505b5093508067ffffffffffffffff81111561118c5761118c612201565b6040519080825280602002602001820160405280156111b5578160200160208202803683370190505b5092505f5b8181101561126b578281815481106111d4576111d4612215565b5f91825260209091206002909102015485516001600160a01b039091169086908390811061120457611204612215565b60200260200101906001600160a01b031690816001600160a01b03168152505082818154811061123657611236612215565b905f5260205f2090600202016001015484828151811061125857611258612215565b60209081029190910101526001016111ba565b5050509091565b5f600354600114611296576040516345f5ce8b60e11b815260040160405180910390fd5b600260035589603c8110806112ae575063bbf81e0081115b156112cc57604051638f1825c960e01b815260040160405180910390fd5b6001600160a01b038a166112f357604051631559b7d760e21b815260040160405180910390fd5b336001600160a01b038b160361131c57604051631559b7d760e21b815260040160405180910390fd5b5f88600181111561132f5761132f612041565b0361138b575f89600181111561134757611347612041565b146113655760405163d4380c7360e01b815260040160405180910390fd5b5f85900361138657604051636fe0b11560e11b815260040160405180910390fd5b6113de565b600188600181111561139f5761139f612041565b036113c5575f83900361138657604051634bd703c160e11b815260040160405180910390fd5b6040516355d4bf8b60e01b815260040160405180910390fd5b335f9081526001602052604081208054935083916113fb8361229b565b9091555050335f81815260208181526040808320868452909152902080546001600160a01b03199081169092178155600180820180549093166001600160a01b038e1617909255600281018d905542600382015560048101805461010061ffff1982168117835592938d9362ffffff19909216909117906201000090849081111561148857611488612041565b02179055506004810180548a919063ff000000191663010000008360018111156114b4576114b4612041565b02179055505f8960018111156114cc576114cc612041565b03611553575f6115118989898080601f0160208091040260200160405190810160405280939291908181526020018383808284375f92019190915250611a6892505050565b905061151d8133611a75565b5061152781611a87565b506005820181905560408051602081019091525f8152600683019061154c90826122fc565b5050611564565b600681016115628587836123b7565b505b6001600160a01b03808c165f9081526002602081815260408084208151808301909252338252818301898152815460018082018455928752939095209151929093020180546001600160a01b0319169190941617835590519101558a6001600160a01b031683336001600160a01b03167f7bf50ad07422a799e979f64ec07dc8e570078c5b138f001f8831d6796b71c84c8f8e8e60405161160793929190612471565b60405180910390a4505060016003559998505050505050505050565b6001600160a01b0382165f9081526020818152604080832084845290915281206004810154610100900460ff1661166d5760405163dee790fb60e01b815260040160405180910390fd5b5f60048201546301000000900460ff16600181111561168e5761168e612041565b146116ac576040516355d4bf8b60e01b815260040160405180910390fd5b5f600482015462010000900460ff1660018111156116cc576116cc612041565b146116ea5760405163d4380c7360e01b815260040160405180910390fd5b60018101546004820154336001600160a01b038088168214931614905f9060ff1680611728575083600201548460030154611725919061223d565b42115b90508215801561173f575081801561173d5750805b155b1561175d5760405163ea8e4eb560e01b815260040160405180910390fd5b505050600501549392505050565b60035460011461178e576040516345f5ce8b60e11b815260040160405180910390fd5b6002600355335f908152602081815260408083208684529091529020600401548390610100900460ff166117d55760405163dee790fb60e01b815260040160405180910390fd5b335f908152602081815260408083208784529091529020600481015460ff161561181257604051630c8d9eab60e31b815260040160405180910390fd5b600160048201546301000000900460ff16600181111561183457611834612041565b14611852576040516355d4bf8b60e01b815260040160405180910390fd5b5f83900361187357604051634bd703c160e11b815260040160405180910390fd5b600681016118828486836123b7565b50426003820155604051859033907f239aa29e2cb919fe7f6dae64c00bab69f4216532270ab6f31013b1563c05ac91906104d3908890889061249e565b6001600160a01b0384165f908152600260205260408120905b8154811015611a0257836001600160a01b03168282815481106118fd576118fd612215565b5f9182526020909120600290910201546001600160a01b031614801561194357508282828154811061193157611931612215565b905f5260205f20906002020160010154145b156119fa578154829061195890600190612288565b8154811061196857611968612215565b905f5260205f20906002020182828154811061198657611986612215565b5f9182526020909120825460029092020180546001600160a01b0319166001600160a01b0390921691909117815560019182015491015581548290806119ce576119ce6124cc565b5f8281526020812060025f199093019283020180546001600160a01b0319168155600101559055611a02565b6001016118d8565b506001600160a01b038085165f90815260026020818152604080842081518083019092528589168252818301888152815460018082018455928752939095209151929093020180546001600160a01b0319169190941617835590519101555b5050505050565b5f61108d83836008611c0d565b5f611a808383611d2d565b5090919050565b5f611a928230611d2d565b5090565b6001600160a01b0383165f908152600260205260408120905b8154811015611a6157836001600160a01b0316828281548110611ad457611ad4612215565b5f9182526020909120600290910201546001600160a01b0316148015611b1a575082828281548110611b0857611b08612215565b905f5260205f20906002020160010154145b15611bd15781548290611b2f90600190612288565b81548110611b3f57611b3f612215565b905f5260205f209060020201828281548110611b5d57611b5d612215565b5f9182526020909120825460029092020180546001600160a01b0319166001600160a01b039092169190911781556001918201549101558154829080611ba557611ba56124cc565b5f8281526020812060025f199093019283020180546001600160a01b0319168155600101559055611a61565b600101611aaf565b5f46600103611be85750600190565b4662aa36a703611bf9575061271190565b46617a6903611c0857505f1990565b505f90565b7f9e7b61f58c47dc699ac88507c4f5bb9f121c03808c5676a8078fe583e46497015460405163045fc19560e11b81525f917f9e7b61f58c47dc699ac88507c4f5bb9f121c03808c5676a8078fe583e4649700916001600160a01b03909116906308bf832a90611c869088903390899089906004016124e0565b6020604051808303815f875af1158015611ca2573d5f5f3e3d5ffd5b505050506040513d601f19601f82011682018060405250810190611cc69190612528565b8154604051630f8e573b60e21b8152600481018390523360248201529193506001600160a01b031690633e395cec906044015f604051808303815f87803b158015611d0f575f5ffd5b505af1158015611d21573d5f5f3e3d5ffd5b50505050509392505050565b5f7f9e7b61f58c47dc699ac88507c4f5bb9f121c03808c5676a8078fe583e46497008054604051635ca4b5b160e11b8152600481018690526001600160a01b03858116602483015292935091169063b9496b62906044015f604051808303815f87803b158015611d9b575f5ffd5b505af1158015611dad573d5f5f3e3d5ffd5b50505050505050565b508054611dc290612250565b5f825580601f10611dd1575050565b601f0160209004905f5260205f2090810190611ded9190611df0565b50565b5b80821115611a92575f8155600101611df1565b80356001600160a01b0381168114611e1a575f5ffd5b919050565b5f5f60408385031215611e30575f5ffd5b82359150611e4060208401611e04565b90509250929050565b5f60208284031215611e59575f5ffd5b61108d82611e04565b5f8151808452602084019350602083015f5b82811015611e92578151865260209586019590910190600101611e74565b5093949350505050565b602081525f61108d6020830184611e62565b5f5f60408385031215611ebf575f5ffd5b611ec883611e04565b946020939093013593505050565b5f81518084528060208401602086015e5f602082860101526020601f19601f83011685010191505092915050565b602081525f61108d6020830184611ed6565b5f5f83601f840112611f26575f5ffd5b50813567ffffffffffffffff811115611f3d575f5ffd5b602083019150836020828501011115611f54575f5ffd5b9250929050565b5f5f5f5f60608587031215611f6e575f5ffd5b8435935060208501359250604085013567ffffffffffffffff811115611f92575f5ffd5b611f9e87828801611f16565b95989497509550505050565b5f60208284031215611fba575f5ffd5b5035919050565b5f5f60408385031215611fd2575f5ffd5b50508035926020909101359150565b604080825283519082018190525f9060208501906060840190835b818110156120235783516001600160a01b0316835260209384019390920191600101611ffc565b505083810360208501526120378186611e62565b9695505050505050565b634e487b7160e01b5f52602160045260245ffd5b60028110611ded57611ded612041565b878152602081018790526001600160a01b03861660408201528415156060820152831515608082015260e0810161209b84612055565b8360a08301526120aa83612055565b8260c083015298975050505050505050565b5f5f5f606084860312156120ce575f5ffd5b6120d784611e04565b9250602084013591506120ec60408501611e04565b90509250925092565b60028110611ded575f5ffd5b5f5f5f5f5f5f5f5f5f60e08a8c031215612119575f5ffd5b8935985061212960208b01611e04565b975060408a0135612139816120f5565b965060608a0135612149816120f5565b955060808a0135945060a08a013567ffffffffffffffff81111561216b575f5ffd5b6121778c828d01611f16565b90955093505060c08a013567ffffffffffffffff811115612196575f5ffd5b6121a28c828d01611f16565b915080935050809150509295985092959850929598565b5f5f5f604084860312156121cb575f5ffd5b83359250602084013567ffffffffffffffff8111156121e8575f5ffd5b6121f486828701611f16565b9497909650939450505050565b634e487b7160e01b5f52604160045260245ffd5b634e487b7160e01b5f52603260045260245ffd5b634e487b7160e01b5f52601160045260245ffd5b8082018082111561071157610711612229565b600181811c9082168061226457607f821691505b60208210810361228257634e487b7160e01b5f52602260045260245ffd5b50919050565b8181038181111561071157610711612229565b5f600182016122ac576122ac612229565b5060010190565b601f8211156122f757805f5260205f20601f840160051c810160208510156122d85750805b601f840160051c820191505b81811015611a61575f81556001016122e4565b505050565b815167ffffffffffffffff81111561231657612316612201565b61232a816123248454612250565b846122b3565b6020601f82116001811461235c575f83156123455750848201515b5f19600385901b1c1916600184901b178455611a61565b5f84815260208120601f198516915b8281101561238b578785015182556020948501946001909201910161236b565b50848210156123a857868401515f19600387901b60f8161c191681555b50505050600190811b01905550565b67ffffffffffffffff8311156123cf576123cf612201565b6123e3836123dd8354612250565b836122b3565b5f601f841160018114612414575f85156123fd5750838201355b5f19600387901b1c1916600186901b178355611a61565b5f83815260208120601f198716915b828110156124435786850135825560209485019460019092019101612423565b508682101561245f575f1960f88860031b161c19848701351681555b505060018560011b0183555050505050565b8381526060810161248184612055565b83602083015261249083612055565b826040830152949350505050565b60208152816020820152818360408301375f818301604090810191909152601f909201601f19160101919050565b634e487b7160e01b5f52603160045260245ffd5b8481526001600160a01b0384166020820152608060408201525f6125076080830185611ed6565b90506054831061251957612519612041565b82606083015295945050505050565b5f60208284031215612538575f5ffd5b505191905056fea164736f6c634300081b000a",
  "linkReferences": {},
  "deployedLinkReferences": {}
}