{
  "_format": "hh-sol-artifact-1",
  "contractName": "Zetter",
  "sourceName": "contracts/Zetter.sol",
  "abi": [
    {
      "inputs": [],
      "name": "AlreadyClaimed",
      "type": "error"
    },
    {
      "inputs": [],
      "name": "InvalidBeneficiary",
      "type": "error"
    },
    {
      "inputs": [],
      "name": "InvalidHeartbeat",
      "type": "error"
    },
    {
      "inputs": [],
      "name": "InvalidPayloadType",
      "type": "error"
    },
    {
      "inputs": [],
      "name": "InvalidStorageMode",
      "type": "error"
    },
    {
      "inputs": [],
      "name": "MissingCID",
      "type": "error"
    },
    {
      "inputs": [],
      "name": "MissingFHEData",
      "type": "error"
    },
    {
      "inputs": [],
      "name": "NotAuthorized",
      "type": "error"
    },
    {
      "inputs": [],
      "name": "NotClaimable",
      "type": "error"
    },
    {
      "inputs": [],
      "name": "ReentrancyGuard",
      "type": "error"
    },
    {
      "inputs": [],
      "name": "VaultNotFound",
      "type": "error"
    },
    {
      "inputs": [],
      "name": "VaultStillActive",
      "type": "error"
    },
    {
      "inputs": [],
      "name": "ZamaProtocolUnsupported",
      "type": "error"
    },
    {
      "anonymous": false,
      "inputs": [
        {
          "indexed": true,
          "internalType": "address",
          "name": "owner",
          "type": "address"
        },
        {
          "indexed": true,
          "internalType": "uint256",
          "name": "vaultId",
          "type": "uint256"
        },
        {
          "indexed": false,
          "internalType": "address",
          "name": "oldBeneficiary",
          "type": "address"
        },
        {
          "indexed": false,
          "internalType": "address",
          "name": "newBeneficiary",
          "type": "address"
        }
      ],
      "name": "BeneficiaryUpdated",
      "type": "event"
    },
    {
      "anonymous": false,
      "inputs": [
        {
          "indexed": true,
          "internalType": "address",
          "name": "owner",
          "type": "address"
        },
        {
          "indexed": true,
          "internalType": "uint256",
          "name": "vaultId",
          "type": "uint256"
        },
        {
          "indexed": false,
          "internalType": "string",
          "name": "newCID",
          "type": "string"
        }
      ],
      "name": "CIDUpdated",
      "type": "event"
    },
    {
      "anonymous": false,
      "inputs": [
        {
          "indexed": true,
          "internalType": "address",
          "name": "owner",
          "type": "address"
        },
        {
          "indexed": true,
          "internalType": "uint256",
          "name": "vaultId",
          "type": "uint256"
        },
        {
          "indexed": true,
          "internalType": "address",
          "name": "beneficiary",
          "type": "address"
        }
      ],
      "name": "Claimed",
      "type": "event"
    },
    {
      "anonymous": false,
      "inputs": [
        {
          "indexed": true,
          "internalType": "address",
          "name": "owner",
          "type": "address"
        },
        {
          "indexed": true,
          "internalType": "uint256",
          "name": "vaultId",
          "type": "uint256"
        },
        {
          "indexed": false,
          "internalType": "uint256",
          "name": "newHeartbeat",
          "type": "uint256"
        }
      ],
      "name": "HeartbeatUpdated",
      "type": "event"
    },
    {
      "anonymous": false,
      "inputs": [
        {
          "indexed": true,
          "internalType": "address",
          "name": "owner",
          "type": "address"
        },
        {
          "indexed": true,
          "internalType": "uint256",
          "name": "vaultId",
          "type": "uint256"
        },
        {
          "indexed": false,
          "internalType": "uint256",
          "name": "timestamp",
          "type": "uint256"
        }
      ],
      "name": "Pinged",
      "type": "event"
    },
    {
      "anonymous": false,
      "inputs": [
        {
          "indexed": true,
          "internalType": "address",
          "name": "owner",
          "type": "address"
        },
        {
          "indexed": true,
          "internalType": "uint256",
          "name": "vaultId",
          "type": "uint256"
        }
      ],
      "name": "SecretUpdated",
      "type": "event"
    },
    {
      "anonymous": false,
      "inputs": [
        {
          "indexed": true,
          "internalType": "address",
          "name": "owner",
          "type": "address"
        },
        {
          "indexed": true,
          "internalType": "uint256",
          "name": "vaultId",
          "type": "uint256"
        },
        {
          "indexed": true,
          "internalType": "address",
          "name": "beneficiary",
          "type": "address"
        },
        {
          "indexed": false,
          "internalType": "uint256",
          "name": "heartbeat",
          "type": "uint256"
        },
        {
          "indexed": false,
          "internalType": "enum Zetter.PayloadType",
          "name": "payloadType",
          "type": "uint8"
        },
        {
          "indexed": false,
          "internalType": "enum Zetter.StorageMode",
          "name": "storageMode",
          "type": "uint8"
        }
      ],
      "name": "VaultCreated",
      "type": "event"
    },
    {
      "anonymous": false,
      "inputs": [
        {
          "indexed": true,
          "internalType": "address",
          "name": "owner",
          "type": "address"
        },
        {
          "indexed": true,
          "internalType": "uint256",
          "name": "vaultId",
          "type": "uint256"
        }
      ],
      "name": "VaultDeleted",
      "type": "event"
    },
    {
      "anonymous": false,
      "inputs": [
        {
          "indexed": true,
          "internalType": "address",
          "name": "owner",
          "type": "address"
        },
        {
          "indexed": true,
          "internalType": "uint256",
          "name": "vaultId",
          "type": "uint256"
        },
        {
          "indexed": false,
          "internalType": "string",
          "name": "name",
          "type": "string"
        }
      ],
      "name": "VaultNamed",
      "type": "event"
    },
    {
      "inputs": [],
      "name": "MAX_HEARTBEAT",
      "outputs": [
        {
          "internalType": "uint256",
          "name": "",
          "type": "uint256"
        }
      ],
      "stateMutability": "view",
      "type": "function"
    },
    {
      "inputs": [],
      "name": "MIN_HEARTBEAT",
      "outputs": [
        {
          "internalType": "uint256",
          "name": "",
          "type": "uint256"
        }
      ],
      "stateMutability": "view",
      "type": "function"
    },
    {
      "inputs": [
        {
          "internalType": "address",
          "name": "_owner",
          "type": "address"
        },
        {
          "internalType": "uint256",
          "name": "_vaultId",
          "type": "uint256"
        },
        {
          "internalType": "address",
          "name": "_claimer",
          "type": "address"
        }
      ],
      "name": "canClaim",
      "outputs": [
        {
          "internalType": "bool",
          "name": "",
          "type": "bool"
        }
      ],
      "stateMutability": "view",
      "type": "function"
    },
    {
      "inputs": [
        {
          "internalType": "address",
          "name": "_owner",
          "type": "address"
        },
        {
          "internalType": "uint256",
          "name": "_vaultId",
          "type": "uint256"
        }
      ],
      "name": "claim",
      "outputs": [],
      "stateMutability": "nonpayable",
      "type": "function"
    },
    {
      "inputs": [],
      "name": "confidentialProtocolId",
      "outputs": [
        {
          "internalType": "uint256",
          "name": "",
          "type": "uint256"
        }
      ],
      "stateMutability": "view",
      "type": "function"
    },
    {
      "inputs": [
        {
          "internalType": "uint256",
          "name": "_heartbeat",
          "type": "uint256"
        },
        {
          "internalType": "address",
          "name": "_beneficiary",
          "type": "address"
        },
        {
          "internalType": "enum Zetter.PayloadType",
          "name": "_payloadType",
          "type": "uint8"
        },
        {
          "internalType": "enum Zetter.StorageMode",
          "name": "_storageMode",
          "type": "uint8"
        },
        {
          "internalType": "externalEuint256",
          "name": "_secret",
          "type": "bytes32"
        },
        {
          "internalType": "bytes",
          "name": "_inputProof",
          "type": "bytes"
        },
        {
          "internalType": "string",
          "name": "_cid",
          "type": "string"
        }
      ],
      "name": "createVault",
      "outputs": [
        {
          "internalType": "uint256",
          "name": "vaultId",
          "type": "uint256"
        }
      ],
      "stateMutability": "nonpayable",
      "type": "function"
    },
    {
      "inputs": [
        {
          "internalType": "uint256",
          "name": "_vaultId",
          "type": "uint256"
        }
      ],
      "name": "deleteVault",
      "outputs": [],
      "stateMutability": "nonpayable",
      "type": "function"
    },
    {
      "inputs": [
        {
          "internalType": "address",
          "name": "_beneficiary",
          "type": "address"
        }
      ],
      "name": "getBeneficiaryVaults",
      "outputs": [
        {
          "internalType": "address[]",
          "name": "owners",
          "type": "address[]"
        },
        {
          "internalType": "uint256[]",
          "name": "vaultIds",
          "type": "uint256[]"
        }
      ],
      "stateMutability": "view",
      "type": "function"
    },
    {
      "inputs": [
        {
          "internalType": "address",
          "name": "_owner",
          "type": "address"
        },
        {
          "internalType": "uint256",
          "name": "_vaultId",
          "type": "uint256"
        }
      ],
      "name": "getCID",
      "outputs": [
        {
          "internalType": "string",
          "name": "",
          "type": "string"
        }
      ],
      "stateMutability": "view",
      "type": "function"
    },
    {
      "inputs": [],
      "name": "getMyBeneficiaryVaults",
      "outputs": [
        {
          "internalType": "address[]",
          "name": "owners",
          "type": "address[]"
        },
        {
          "internalType": "uint256[]",
          "name": "vaultIds",
          "type": "uint256[]"
        }
      ],
      "stateMutability": "view",
      "type": "function"
    },
    {
      "inputs": [
        {
          "internalType": "address",
          "name": "_owner",
          "type": "address"
        }
      ],
      "name": "getOwnerVaults",
      "outputs": [
        {
          "internalType": "uint256[]",
          "name": "vaultIds",
          "type": "uint256[]"
        }
      ],
      "stateMutability": "view",
      "type": "function"
    },
    {
      "inputs": [
        {
          "internalType": "address",
          "name": "_owner",
          "type": "address"
        },
        {
          "internalType": "uint256",
          "name": "_vaultId",
          "type": "uint256"
        }
      ],
      "name": "getSecret",
      "outputs": [
        {
          "internalType": "euint256",
          "name": "",
          "type": "bytes32"
        }
      ],
      "stateMutability": "view",
      "type": "function"
    },
    {
      "inputs": [
        {
          "internalType": "address",
          "name": "_owner",
          "type": "address"
        },
        {
          "internalType": "uint256",
          "name": "_vaultId",
          "type": "uint256"
        }
      ],
      "name": "getTimeUntilClaimable",
      "outputs": [
        {
          "internalType": "uint256",
          "name": "timeRemaining",
          "type": "uint256"
        }
      ],
      "stateMutability": "view",
      "type": "function"
    },
    {
      "inputs": [
        {
          "internalType": "address",
          "name": "_owner",
          "type": "address"
        },
        {
          "internalType": "uint256",
          "name": "_vaultId",
          "type": "uint256"
        }
      ],
      "name": "getVaultDetails",
      "outputs": [
        {
          "internalType": "uint256",
          "name": "heartbeat",
          "type": "uint256"
        },
        {
          "internalType": "uint256",
          "name": "lastPing",
          "type": "uint256"
        },
        {
          "internalType": "address",
          "name": "beneficiary",
          "type": "address"
        },
        {
          "internalType": "bool",
          "name": "claimed",
          "type": "bool"
        },
        {
          "internalType": "bool",
          "name": "isClaimable",
          "type": "bool"
        },
        {
          "internalType": "enum Zetter.PayloadType",
          "name": "payloadType",
          "type": "uint8"
        },
        {
          "internalType": "enum Zetter.StorageMode",
          "name": "storageMode",
          "type": "uint8"
        }
      ],
      "stateMutability": "view",
      "type": "function"
    },
    {
      "inputs": [
        {
          "internalType": "address",
          "name": "_owner",
          "type": "address"
        },
        {
          "internalType": "uint256",
          "name": "_vaultId",
          "type": "uint256"
        }
      ],
      "name": "getVaultName",
      "outputs": [
        {
          "internalType": "string",
          "name": "",
          "type": "string"
        }
      ],
      "stateMutability": "view",
      "type": "function"
    },
    {
      "inputs": [
        {
          "internalType": "address",
          "name": "_owner",
          "type": "address"
        },
        {
          "internalType": "uint256",
          "name": "_vaultId",
          "type": "uint256"
        }
      ],
      "name": "hasVault",
      "outputs": [
        {
          "internalType": "bool",
          "name": "",
          "type": "bool"
        }
      ],
      "stateMutability": "view",
      "type": "function"
    },
    {
      "inputs": [
        {
          "internalType": "uint256",
          "name": "_vaultId",
          "type": "uint256"
        }
      ],
      "name": "ping",
      "outputs": [],
      "stateMutability": "nonpayable",
      "type": "function"
    },
    {
      "inputs": [
        {
          "internalType": "uint256",
          "name": "_vaultId",
          "type": "uint256"
        },
        {
          "internalType": "address",
          "name": "_newBeneficiary",
          "type": "address"
        }
      ],
      "name": "setBeneficiary",
      "outputs": [],
      "stateMutability": "nonpayable",
      "type": "function"
    },
    {
      "inputs": [
        {
          "internalType": "uint256",
          "name": "_vaultId",
          "type": "uint256"
        },
        {
          "internalType": "uint256",
          "name": "_newHeartbeat",
          "type": "uint256"
        }
      ],
      "name": "setHeartbeat",
      "outputs": [],
      "stateMutability": "nonpayable",
      "type": "function"
    },
    {
      "inputs": [
        {
          "internalType": "uint256",
          "name": "_vaultId",
          "type": "uint256"
        },
        {
          "internalType": "string",
          "name": "_name",
          "type": "string"
        }
      ],
      "name": "setVaultName",
      "outputs": [],
      "stateMutability": "nonpayable",
      "type": "function"
    },
    {
      "inputs": [
        {
          "internalType": "uint256",
          "name": "_vaultId",
          "type": "uint256"
        },
        {
          "internalType": "string",
          "name": "_newCID",
          "type": "string"
        }
      ],
      "name": "updateCID",
      "outputs": [],
      "stateMutability": "nonpayable",
      "type": "function"
    },
    {
      "inputs": [
        {
          "internalType": "uint256",
          "name": "_vaultId",
          "type": "uint256"
        },
        {
          "internalType": "externalEuint256",
          "name": "_newSecret",
          "type": "bytes32"
        },
        {
          "internalType": "bytes",
          "name": "_inputProof",
          "type": "bytes"
        }
      ],
      "name": "updateSecret",
      "outputs": [],
      "stateMutability": "nonpayable",
      "type": "function"
    },
    {
      "inputs": [
        {
          "internalType": "address",
          "name": "",
          "type": "address"
        }
      ],
      "name": "vaultCount",
      "outputs": [
        {
          "internalType": "uint256",
          "name": "",
          "type": "uint256"
        }
      ],
      "stateMutability": "view",
      "type": "function"
    }
  ],
  "bytecode": "0x60806040526001600355348015610014575f5ffd5b506100c96100206100ce565b80517f9e7b61f58c47dc699ac88507c4f5bb9f121c03808c5676a8078fe583e464970080546001600160a01b03199081166001600160a01b039384161790915560208301517f9e7b61f58c47dc699ac88507c4f5bb9f121c03808c5676a8078fe583e46497018054831691841691909117905560408301517f9e7b61f58c47dc699ac88507c4f5bb9f121c03808c5676a8078fe583e46497028054909216921691909117905550565b61023d565b604080516060810182525f808252602082018190529181019190915246600103610127575060408051606080820183525f8083526020808401829052928401819052835191820184528082529181018290529182015290565b4662aa36a7036101a6575060408051606080820183525f8083526020808401829052928401528251908101835273f0ffdc93b7e186bc2f8cb3daa75d86d1930a433d81527392c920834ec8941d2c77d188936e1f7a6f49c1279181019190915273be0e383937d564d7ff0bc3b46c51f0bf8d5c311a9181019190915290565b46617a6903610224575060408051606080820183525f8083526020808401829052928401528251908101835273f0ffdc93b7e186bc2f8cb3daa75d86d1930a433d81527392c920834ec8941d2c77d188936e1f7a6f49c1279181019190915273be0e383937d564d7ff0bc3b46c51f0bf8d5c311a9181019190915290565b6040516373cac13b60e01b815260040160405180910390fd5b6127698061024a5f395ff3fe608060405234801561000f575f5ffd5b5060043610610184575f3560e01c8063a91fade8116100dd578063dd82c07111610088578063ea8d937711610063578063ea8d93771461037a578063f6dd893014610385578063feaeaf6214610398575f5ffd5b8063dd82c0711461034c578063e12e949014610354578063e9bf53b214610367575f5ffd5b8063b4698188116100b8578063b4698188146102e8578063ba803809146102fb578063c6d98f9c14610339575f5ffd5b8063a91fade81461028c578063aad3ec96146102b2578063b178e559146102c5575f5ffd5b80635a4749541161013d5780638927b030116101185780638927b030146102445780639003280c1461024c5780639038ff801461026d575f5ffd5b80635a4749541461020b5780636203cc6a1461021e578063773acdef14610231575f5ffd5b80633a0f555d1161016d5780633a0f555d146101b857806347b3d12a146101d857806359d3936b146101f8575f5ffd5b80631c846d59146101885780631f76d82c1461019d575b5f5ffd5b61019b61019636600461203c565b6103ab565b005b6101a5603c81565b6040519081526020015b60405180910390f35b6101cb6101c6366004612066565b610535565b6040516101af91906120b9565b6101eb6101e63660046120cb565b6105cc565b6040516101af9190612121565b61019b610206366004612178565b610765565b61019b6102193660046121c7565b610927565b61019b61022c3660046121de565b610a8f565b61019b61023f3660046121c7565b610ba8565b6101a5610c98565b61025f61025a366004612066565b610ca6565b6040516101af9291906121fe565b6101a561027b366004612066565b60016020525f908152604090205481565b61029f61029a3660046120cb565b610e09565b6040516101af9796959493929190612282565b61019b6102c03660046120cb565b610ed1565b6102d86102d33660046122d9565b61104f565b60405190151581526020016101af565b6101a56102f63660046120cb565b6110ef565b6102d86103093660046120cb565b6001600160a01b03919091165f908152602081815260408083209383529290522060040154610100900460ff1690565b61019b610347366004612312565b611174565b61025f611267565b6101eb6103623660046120cb565b6113c0565b6101a5610375366004612366565b6114a2565b6101a563bbf81e0081565b6101a56103933660046120cb565b6118bd565b61019b6103a6366004612312565b611988565b6003546001146103ce576040516345f5ce8b60e11b815260040160405180910390fd5b6002600355335f908152602081815260408083208584529091529020600401548290610100900460ff166104155760405163dee790fb60e01b815260040160405180910390fd5b6001600160a01b03821661043c57604051631559b7d760e21b815260040160405180910390fd5b336001600160a01b0383160361046557604051631559b7d760e21b815260040160405180910390fd5b335f908152602081815260408083208684529091529020600481015460ff16156104a257604051630c8d9eab60e31b815260040160405180910390fd5b6001810180546001600160a01b038581166001600160a01b031983161790925560058301549116906104d49085611adc565b506104e181853388611aee565b604080516001600160a01b03838116825286166020820152869133917f27784b448ddb1b61a6fd400d3de0be76fcc1e626ea9e2460813b642c3498b02691015b60405180910390a350506001600355505050565b6001600160a01b0381165f908152600160205260409020546060908067ffffffffffffffff8111156105695761056961241e565b604051908082528060200260200182016040528015610592578160200160208202803683370190505b5091505f5b818110156105c557808382815181106105b2576105b2612432565b6020908102919091010152600101610597565b5050919050565b6001600160a01b0382165f908152602081815260408083208484529091529020600481015460609190610100900460ff1661061a5760405163dee790fb60e01b815260040160405180910390fd5b600160048201546301000000900460ff16600181111561063c5761063c61225e565b1461065a576040516355d4bf8b60e01b815260040160405180910390fd5b60018101546004820154336001600160a01b038088168214931614905f9060ff1680610698575083600201548460030154610695919061245a565b42115b9050821580156106af57508180156106ad5750805b155b156106cd5760405163ea8e4eb560e01b815260040160405180910390fd5b8360060180546106dc9061246d565b80601f01602080910402602001604051908101604052809291908181526020018280546107089061246d565b80156107535780601f1061072a57610100808354040283529160200191610753565b820191905f5260205f20905b81548152906001019060200180831161073657829003601f168201915b50505050509450505050505b92915050565b600354600114610788576040516345f5ce8b60e11b815260040160405180910390fd5b6002600355335f908152602081815260408083208784529091529020600401548490610100900460ff166107cf5760405163dee790fb60e01b815260040160405180910390fd5b335f908152602081815260408083208884529091529020600481015460ff161561080c57604051630c8d9eab60e31b815260040160405180910390fd5b5f60048201546301000000900460ff16600181111561082d5761082d61225e565b1461084b576040516355d4bf8b60e01b815260040160405180910390fd5b5f600482015462010000900460ff16600181111561086b5761086b61225e565b146108895760405163d4380c7360e01b815260040160405180910390fd5b5f6108c98686868080601f0160208091040260200160405190810160405280939291908181526020018383808284375f92019190915250611c9792505050565b90506108d58133611adc565b506108df81611ca4565b5060058201819055426003830155604051879033907f337c5ecd0d46e73e380492c330aaff0782b04f82846a7d4fdca6e8ccd48d625e905f90a3505060016003555050505050565b60035460011461094a576040516345f5ce8b60e11b815260040160405180910390fd5b6002600355335f908152602081815260408083208484529091529020600401548190610100900460ff166109915760405163dee790fb60e01b815260040160405180910390fd5b335f908152602081815260408083208584529091529020600481015460ff166109cd5760405163359699e560e01b815260040160405180910390fd5b60018101546109e6906001600160a01b03163385611cb3565b335f90815260208181526040808320868452909152812080546001600160a01b031990811682556001820180549091169055600281018290556003810182905560048101805463ffffffff191690556005810182905590610a4a6006830182611fd3565b610a57600783015f611fd3565b5050604051839033907f80ecfd2332dc89779338fbe043a540171eef988ea66299b4f7be21ffcd4a9d3f905f90a35050600160035550565b600354600114610ab2576040516345f5ce8b60e11b815260040160405180910390fd5b6002600355335f908152602081815260408083208584529091529020600401548290610100900460ff16610af95760405163dee790fb60e01b815260040160405180910390fd5b81603c811080610b0c575063bbf81e0081115b15610b2a57604051638f1825c960e01b815260040160405180910390fd5b335f908152602081815260408083208784529091529020600481015460ff1615610b6757604051630c8d9eab60e31b815260040160405180910390fd5b60028101849055426003820155604051848152859033907fe00f3a9d5f4d22dfe10451bb6ad017220c1f6240342ab6c99fc7d9e0db4b606890602001610521565b600354600114610bcb576040516345f5ce8b60e11b815260040160405180910390fd5b6002600355335f908152602081815260408083208484529091529020600401548190610100900460ff16610c125760405163dee790fb60e01b815260040160405180910390fd5b335f908152602081815260408083208584529091529020600481015460ff1615610c4f57604051630c8d9eab60e31b815260040160405180910390fd5b4260038201819055604051908152839033907fdcc771264ff60ea7e7d5530d00c9e91f464ff8d3f9bcebe874cf0621b651115d9060200160405180910390a35050600160035550565b5f610ca1611df6565b905090565b6001600160a01b0381165f908152600260205260409020805460609182918067ffffffffffffffff811115610cdd57610cdd61241e565b604051908082528060200260200182016040528015610d06578160200160208202803683370190505b5093508067ffffffffffffffff811115610d2257610d2261241e565b604051908082528060200260200182016040528015610d4b578160200160208202803683370190505b5092505f5b81811015610e0157828181548110610d6a57610d6a612432565b5f91825260209091206002909102015485516001600160a01b0390911690869083908110610d9a57610d9a612432565b60200260200101906001600160a01b031690816001600160a01b031681525050828181548110610dcc57610dcc612432565b905f5260205f20906002020160010154848281518110610dee57610dee612432565b6020908102919091010152600101610d50565b505050915091565b6001600160a01b0382165f9081526020818152604080832084845290915281206004810154829182918291829182918291610100900460ff16610e5f5760405163dee790fb60e01b815260040160405180910390fd5b80600201548160030154610e73919061245a565b42118015610e865750600481015460ff16155b600282015460038301546001840154600490940154919d909c506001600160a01b039093169a5060ff8082169a50919850620100008104821697506301000000900416945092505050565b600354600114610ef4576040516345f5ce8b60e11b815260040160405180910390fd5b60026003556001600160a01b0382165f9081526020818152604080832084845290915290206004810154610100900460ff16610f435760405163dee790fb60e01b815260040160405180910390fd5b60018101546001600160a01b03163314610f705760405163ea8e4eb560e01b815260040160405180910390fd5b600481015460ff1615610f9657604051630c8d9eab60e31b815260040160405180910390fd5b80600201548160030154610faa919061245a565b4211610fc957604051633123d42760e11b815260040160405180910390fd5b5f60048201546301000000900460ff166001811115610fea57610fea61225e565b03610fff57610ffd816005015433611adc565b505b60048101805460ff19166001179055604051339083906001600160a01b038616907f7e6632ca16a0ac6cf28448500b1a17d96c8b8163ad4c4a9b44ef5386cc02779e905f90a45050600160035550565b6001600160a01b0383165f9081526020818152604080832085845290915281206004810154610100900460ff16611089575f9150506110e8565b600481015460ff161561109f575f9150506110e8565b60018101546001600160a01b038481169116146110bf575f9150506110e8565b806002015481600301546110d3919061245a565b42116110e2575f9150506110e8565b60019150505b9392505050565b6001600160a01b0382165f9081526020818152604080832084845290915281206004810154610100900460ff166111395760405163dee790fb60e01b815260040160405180910390fd5b5f8160020154826003015461114e919061245a565b9050804210611161575f9250505061075f565b61116b42826124a5565b95945050505050565b600354600114611197576040516345f5ce8b60e11b815260040160405180910390fd5b6002600355335f908152602081815260408083208684529091529020600401548390610100900460ff166111de5760405163dee790fb60e01b815260040160405180910390fd5b335f908152602081815260408083208784529091529020600481015460ff161561121b57604051630c8d9eab60e31b815260040160405180910390fd5b6007810161122a848683612501565b5084336001600160a01b03167f2941018e6e35e9f04137ac2b9e376bd47778e01c5603780fc5fb4bbc191d125386866040516105219291906125bb565b335f908152600260205260409020805460609182918067ffffffffffffffff8111156112955761129561241e565b6040519080825280602002602001820160405280156112be578160200160208202803683370190505b5093508067ffffffffffffffff8111156112da576112da61241e565b604051908082528060200260200182016040528015611303578160200160208202803683370190505b5092505f5b818110156113b95782818154811061132257611322612432565b5f91825260209091206002909102015485516001600160a01b039091169086908390811061135257611352612432565b60200260200101906001600160a01b031690816001600160a01b03168152505082818154811061138457611384612432565b905f5260205f209060020201600101548482815181106113a6576113a6612432565b6020908102919091010152600101611308565b5050509091565b6001600160a01b0382165f908152602081815260408083208484529091529020600481015460609190610100900460ff1661140e5760405163dee790fb60e01b815260040160405180910390fd5b80600701805461141d9061246d565b80601f01602080910402602001604051908101604052809291908181526020018280546114499061246d565b80156114945780601f1061146b57610100808354040283529160200191611494565b820191905f5260205f20905b81548152906001019060200180831161147757829003601f168201915b505050505091505092915050565b5f6003546001146114c6576040516345f5ce8b60e11b815260040160405180910390fd5b600260035589603c8110806114de575063bbf81e0081115b156114fc57604051638f1825c960e01b815260040160405180910390fd5b6001600160a01b038a1661152357604051631559b7d760e21b815260040160405180910390fd5b336001600160a01b038b160361154c57604051631559b7d760e21b815260040160405180910390fd5b5f88600181111561155f5761155f61225e565b036115bb575f8960018111156115775761157761225e565b146115955760405163d4380c7360e01b815260040160405180910390fd5b5f8590036115b657604051636fe0b11560e11b815260040160405180910390fd5b61160e565b60018860018111156115cf576115cf61225e565b036115f5575f83900361159557604051634bd703c160e11b815260040160405180910390fd5b6040516355d4bf8b60e01b815260040160405180910390fd5b335f90815260016020526040812080549350839161162b836125e9565b9091555050335f81815260208181526040808320868452909152902080546001600160a01b03199081169092178155600180820180549093166001600160a01b038e1617909255600281018d905542600382015560048101805461010061ffff1982168117835592938d9362ffffff1990921690911790620100009084908111156116b8576116b861225e565b02179055506004810180548a919063ff000000191663010000008360018111156116e4576116e461225e565b02179055505f8960018111156116fc576116fc61225e565b03611783575f6117418989898080601f0160208091040260200160405190810160405280939291908181526020018383808284375f92019190915250611c9792505050565b905061174d8133611adc565b5061175781611ca4565b506005820181905560408051602081019091525f8152600683019061177c9082612601565b50506117fe565b5f6117c38989898080601f0160208091040260200160405190810160405280939291908181526020018383808284375f92019190915250611c9792505050565b90506117cf8133611adc565b506117da818d611adc565b506117e481611ca4565b5060058201819055600682016117fb868883612501565b50505b6001600160a01b03808c165f9081526002602081815260408084208151808301909252338252818301898152815460018082018455928752939095209151929093020180546001600160a01b0319169190941617835590519101558a6001600160a01b031683336001600160a01b03167f7bf50ad07422a799e979f64ec07dc8e570078c5b138f001f8831d6796b71c84c8f8e8e6040516118a1939291906126bc565b60405180910390a4505060016003559998505050505050505050565b6001600160a01b0382165f9081526020818152604080832084845290915281206004810154610100900460ff166119075760405163dee790fb60e01b815260040160405180910390fd5b60018101546004820154336001600160a01b038088168214931614905f9060ff1680611945575083600201548460030154611942919061245a565b42115b90508215801561195c575081801561195a5750805b155b1561197a5760405163ea8e4eb560e01b815260040160405180910390fd5b505050600501549392505050565b6003546001146119ab576040516345f5ce8b60e11b815260040160405180910390fd5b6002600355335f908152602081815260408083208684529091529020600401548390610100900460ff166119f25760405163dee790fb60e01b815260040160405180910390fd5b335f908152602081815260408083208784529091529020600481015460ff1615611a2f57604051630c8d9eab60e31b815260040160405180910390fd5b600160048201546301000000900460ff166001811115611a5157611a5161225e565b14611a6f576040516355d4bf8b60e01b815260040160405180910390fd5b5f839003611a9057604051634bd703c160e11b815260040160405180910390fd5b60068101611a9f848683612501565b50426003820155604051859033907f239aa29e2cb919fe7f6dae64c00bab69f4216532270ab6f31013b1563c05ac919061052190889088906125bb565b5f611ae78383611e2a565b5090919050565b6001600160a01b0384165f908152600260205260408120905b8154811015611c3157836001600160a01b0316828281548110611b2c57611b2c612432565b5f9182526020909120600290910201546001600160a01b0316148015611b72575082828281548110611b6057611b60612432565b905f5260205f20906002020160010154145b15611c295781548290611b87906001906124a5565b81548110611b9757611b97612432565b905f5260205f209060020201828281548110611bb557611bb5612432565b5f9182526020909120825460029092020180546001600160a01b0319166001600160a01b039092169190911781556001918201549101558154829080611bfd57611bfd6126e9565b5f8281526020812060025f199093019283020180546001600160a01b0319168155600101559055611c31565b600101611b07565b506001600160a01b038085165f90815260026020818152604080842081518083019092528589168252818301888152815460018082018455928752939095209151929093020180546001600160a01b0319169190941617835590519101555b5050505050565b5f6110e883836008611eb3565b5f611caf8230611e2a565b5090565b6001600160a01b0383165f908152600260205260408120905b8154811015611c9057836001600160a01b0316828281548110611cf157611cf1612432565b5f9182526020909120600290910201546001600160a01b0316148015611d37575082828281548110611d2557611d25612432565b905f5260205f20906002020160010154145b15611dee5781548290611d4c906001906124a5565b81548110611d5c57611d5c612432565b905f5260205f209060020201828281548110611d7a57611d7a612432565b5f9182526020909120825460029092020180546001600160a01b0319166001600160a01b039092169190911781556001918201549101558154829080611dc257611dc26126e9565b5f8281526020812060025f199093019283020180546001600160a01b0319168155600101559055611c90565b600101611ccc565b5f46600103611e055750600190565b4662aa36a703611e16575061271190565b46617a6903611e2557505f1990565b505f90565b5f7f9e7b61f58c47dc699ac88507c4f5bb9f121c03808c5676a8078fe583e46497008054604051635ca4b5b160e11b8152600481018690526001600160a01b03858116602483015292935091169063b9496b62906044015f604051808303815f87803b158015611e98575f5ffd5b505af1158015611eaa573d5f5f3e3d5ffd5b50505050505050565b7f9e7b61f58c47dc699ac88507c4f5bb9f121c03808c5676a8078fe583e46497015460405163045fc19560e11b81525f917f9e7b61f58c47dc699ac88507c4f5bb9f121c03808c5676a8078fe583e4649700916001600160a01b03909116906308bf832a90611f2c9088903390899089906004016126fd565b6020604051808303815f875af1158015611f48573d5f5f3e3d5ffd5b505050506040513d601f19601f82011682018060405250810190611f6c9190612745565b8154604051630f8e573b60e21b8152600481018390523360248201529193506001600160a01b031690633e395cec906044015f604051808303815f87803b158015611fb5575f5ffd5b505af1158015611fc7573d5f5f3e3d5ffd5b50505050509392505050565b508054611fdf9061246d565b5f825580601f10611fee575050565b601f0160209004905f5260205f209081019061200a919061200d565b50565b5b80821115611caf575f815560010161200e565b80356001600160a01b0381168114612037575f5ffd5b919050565b5f5f6040838503121561204d575f5ffd5b8235915061205d60208401612021565b90509250929050565b5f60208284031215612076575f5ffd5b6110e882612021565b5f8151808452602084019350602083015f5b828110156120af578151865260209586019590910190600101612091565b5093949350505050565b602081525f6110e8602083018461207f565b5f5f604083850312156120dc575f5ffd5b6120e583612021565b946020939093013593505050565b5f81518084528060208401602086015e5f602082860101526020601f19601f83011685010191505092915050565b602081525f6110e860208301846120f3565b5f5f83601f840112612143575f5ffd5b50813567ffffffffffffffff81111561215a575f5ffd5b602083019150836020828501011115612171575f5ffd5b9250929050565b5f5f5f5f6060858703121561218b575f5ffd5b8435935060208501359250604085013567ffffffffffffffff8111156121af575f5ffd5b6121bb87828801612133565b95989497509550505050565b5f602082840312156121d7575f5ffd5b5035919050565b5f5f604083850312156121ef575f5ffd5b50508035926020909101359150565b604080825283519082018190525f9060208501906060840190835b818110156122405783516001600160a01b0316835260209384019390920191600101612219565b50508381036020850152612254818661207f565b9695505050505050565b634e487b7160e01b5f52602160045260245ffd5b6002811061200a5761200a61225e565b878152602081018790526001600160a01b03861660408201528415156060820152831515608082015260e081016122b884612272565b8360a08301526122c783612272565b8260c083015298975050505050505050565b5f5f5f606084860312156122eb575f5ffd5b6122f484612021565b92506020840135915061230960408501612021565b90509250925092565b5f5f5f60408486031215612324575f5ffd5b83359250602084013567ffffffffffffffff811115612341575f5ffd5b61234d86828701612133565b9497909650939450505050565b6002811061200a575f5ffd5b5f5f5f5f5f5f5f5f5f60e08a8c03121561237e575f5ffd5b8935985061238e60208b01612021565b975060408a013561239e8161235a565b965060608a01356123ae8161235a565b955060808a0135945060a08a013567ffffffffffffffff8111156123d0575f5ffd5b6123dc8c828d01612133565b90955093505060c08a013567ffffffffffffffff8111156123fb575f5ffd5b6124078c828d01612133565b915080935050809150509295985092959850929598565b634e487b7160e01b5f52604160045260245ffd5b634e487b7160e01b5f52603260045260245ffd5b634e487b7160e01b5f52601160045260245ffd5b8082018082111561075f5761075f612446565b600181811c9082168061248157607f821691505b60208210810361249f57634e487b7160e01b5f52602260045260245ffd5b50919050565b8181038181111561075f5761075f612446565b601f8211156124fc57805f5260205f20601f840160051c810160208510156124dd5750805b601f840160051c820191505b81811015611c90575f81556001016124e9565b505050565b67ffffffffffffffff8311156125195761251961241e565b61252d83612527835461246d565b836124b8565b5f601f84116001811461255e575f85156125475750838201355b5f19600387901b1c1916600186901b178355611c90565b5f83815260208120601f198716915b8281101561258d578685013582556020948501946001909201910161256d565b50868210156125a9575f1960f88860031b161c19848701351681555b505060018560011b0183555050505050565b60208152816020820152818360408301375f818301604090810191909152601f909201601f19160101919050565b5f600182016125fa576125fa612446565b5060010190565b815167ffffffffffffffff81111561261b5761261b61241e565b61262f81612629845461246d565b846124b8565b6020601f821160018114612661575f831561264a5750848201515b5f19600385901b1c1916600184901b178455611c90565b5f84815260208120601f198516915b828110156126905787850151825560209485019460019092019101612670565b50848210156126ad57868401515f19600387901b60f8161c191681555b50505050600190811b01905550565b838152606081016126cc84612272565b8360208301526126db83612272565b826040830152949350505050565b634e487b7160e01b5f52603160045260245ffd5b8481526001600160a01b0384166020820152608060408201525f61272460808301856120f3565b9050605483106127365761273661225e565b82606083015295945050505050565b5f60208284031215612755575f5ffd5b505191905056fea164736f6c634300081b000a",
  "linkReferences": {},
  "deployedLinkReferences": {}
}