{
  "_format": "hh-sol-artifact-1",
  "contractName": "Zetter",
  "sourceName": "contracts/Zetter.sol",
  "abi": [
    {
      "inputs": [],
      "name": "AlreadyClaimed",
      "type": "error"
    },
    {
      "inputs": [],
      "name": "InvalidHeartbeat",
      "type": "error"
    },
    {
      "inputs": [],
      "name": "NotAuthorized",
      "type": "error"
    },
    {
      "inputs": [],
      "name": "NotClaimable",
      "type": "error"
    },
    {
      "inputs": [],
      "name": "ReentrancyGuard",
      "type": "error"
    },
    {
      "inputs": [],
      "name": "VaultNotFound",
      "type": "error"
    },
    {
      "inputs": [],
      "name": "VaultStillActive",
      "type": "error"
    },
    {
      "inputs": [],
      "name": "ZamaProtocolUnsupported",
      "type": "error"
    },
    {
      "anonymous": false,
      "inputs": [
        {
          "indexed": true,
          "internalType": "address",
          "name": "owner",
          "type": "address"
        },
        {
          "indexed": true,
          "internalType": "uint256",
          "name": "vaultId",
          "type": "uint256"
        },
        {
          "indexed": false,
          "internalType": "address",
          "name": "newBeneficiary",
          "type": "address"
        }
      ],
      "name": "BeneficiaryUpdated",
      "type": "event"
    },
    {
      "anonymous": false,
      "inputs": [
        {
          "indexed": true,
          "internalType": "address",
          "name": "owner",
          "type": "address"
        },
        {
          "indexed": true,
          "internalType": "uint256",
          "name": "vaultId",
          "type": "uint256"
        },
        {
          "indexed": true,
          "internalType": "address",
          "name": "beneficiary",
          "type": "address"
        }
      ],
      "name": "Claimed",
      "type": "event"
    },
    {
      "anonymous": false,
      "inputs": [
        {
          "indexed": true,
          "internalType": "address",
          "name": "owner",
          "type": "address"
        },
        {
          "indexed": true,
          "internalType": "uint256",
          "name": "vaultId",
          "type": "uint256"
        },
        {
          "indexed": false,
          "internalType": "uint256",
          "name": "newHeartbeat",
          "type": "uint256"
        }
      ],
      "name": "HeartbeatUpdated",
      "type": "event"
    },
    {
      "anonymous": false,
      "inputs": [
        {
          "indexed": true,
          "internalType": "address",
          "name": "owner",
          "type": "address"
        },
        {
          "indexed": true,
          "internalType": "uint256",
          "name": "vaultId",
          "type": "uint256"
        },
        {
          "indexed": false,
          "internalType": "uint256",
          "name": "timestamp",
          "type": "uint256"
        }
      ],
      "name": "Pinged",
      "type": "event"
    },
    {
      "anonymous": false,
      "inputs": [
        {
          "indexed": true,
          "internalType": "address",
          "name": "owner",
          "type": "address"
        },
        {
          "indexed": true,
          "internalType": "uint256",
          "name": "vaultId",
          "type": "uint256"
        }
      ],
      "name": "SecretUpdated",
      "type": "event"
    },
    {
      "anonymous": false,
      "inputs": [
        {
          "indexed": true,
          "internalType": "address",
          "name": "owner",
          "type": "address"
        },
        {
          "indexed": true,
          "internalType": "uint256",
          "name": "vaultId",
          "type": "uint256"
        },
        {
          "indexed": true,
          "internalType": "address",
          "name": "beneficiary",
          "type": "address"
        },
        {
          "indexed": false,
          "internalType": "uint256",
          "name": "heartbeat",
          "type": "uint256"
        }
      ],
      "name": "VaultCreated",
      "type": "event"
    },
    {
      "anonymous": false,
      "inputs": [
        {
          "indexed": true,
          "internalType": "address",
          "name": "owner",
          "type": "address"
        },
        {
          "indexed": true,
          "internalType": "uint256",
          "name": "vaultId",
          "type": "uint256"
        }
      ],
      "name": "VaultDeleted",
      "type": "event"
    },
    {
      "inputs": [],
      "name": "MAX_HEARTBEAT",
      "outputs": [
        {
          "internalType": "uint256",
          "name": "",
          "type": "uint256"
        }
      ],
      "stateMutability": "view",
      "type": "function"
    },
    {
      "inputs": [],
      "name": "MIN_HEARTBEAT",
      "outputs": [
        {
          "internalType": "uint256",
          "name": "",
          "type": "uint256"
        }
      ],
      "stateMutability": "view",
      "type": "function"
    },
    {
      "inputs": [
        {
          "internalType": "address",
          "name": "_owner",
          "type": "address"
        },
        {
          "internalType": "uint256",
          "name": "_vaultId",
          "type": "uint256"
        },
        {
          "internalType": "address",
          "name": "_claimer",
          "type": "address"
        }
      ],
      "name": "canClaim",
      "outputs": [
        {
          "internalType": "bool",
          "name": "",
          "type": "bool"
        }
      ],
      "stateMutability": "view",
      "type": "function"
    },
    {
      "inputs": [
        {
          "internalType": "address",
          "name": "_owner",
          "type": "address"
        },
        {
          "internalType": "uint256",
          "name": "_vaultId",
          "type": "uint256"
        }
      ],
      "name": "claim",
      "outputs": [],
      "stateMutability": "nonpayable",
      "type": "function"
    },
    {
      "inputs": [],
      "name": "confidentialProtocolId",
      "outputs": [
        {
          "internalType": "uint256",
          "name": "",
          "type": "uint256"
        }
      ],
      "stateMutability": "view",
      "type": "function"
    },
    {
      "inputs": [
        {
          "internalType": "uint256",
          "name": "_heartbeat",
          "type": "uint256"
        },
        {
          "internalType": "address",
          "name": "_beneficiary",
          "type": "address"
        },
        {
          "internalType": "externalEuint256",
          "name": "_secret",
          "type": "bytes32"
        },
        {
          "internalType": "bytes",
          "name": "inputProof",
          "type": "bytes"
        }
      ],
      "name": "createVault",
      "outputs": [
        {
          "internalType": "uint256",
          "name": "vaultId",
          "type": "uint256"
        }
      ],
      "stateMutability": "nonpayable",
      "type": "function"
    },
    {
      "inputs": [
        {
          "internalType": "uint256",
          "name": "_vaultId",
          "type": "uint256"
        }
      ],
      "name": "deleteVault",
      "outputs": [],
      "stateMutability": "nonpayable",
      "type": "function"
    },
    {
      "inputs": [
        {
          "internalType": "address",
          "name": "_owner",
          "type": "address"
        }
      ],
      "name": "getOwnerVaults",
      "outputs": [
        {
          "internalType": "uint256[]",
          "name": "vaultIds",
          "type": "uint256[]"
        }
      ],
      "stateMutability": "view",
      "type": "function"
    },
    {
      "inputs": [
        {
          "internalType": "address",
          "name": "_owner",
          "type": "address"
        },
        {
          "internalType": "uint256",
          "name": "_vaultId",
          "type": "uint256"
        }
      ],
      "name": "getSecret",
      "outputs": [
        {
          "internalType": "euint256",
          "name": "",
          "type": "bytes32"
        }
      ],
      "stateMutability": "view",
      "type": "function"
    },
    {
      "inputs": [
        {
          "internalType": "address",
          "name": "_owner",
          "type": "address"
        },
        {
          "internalType": "uint256",
          "name": "_vaultId",
          "type": "uint256"
        }
      ],
      "name": "getTimeUntilClaimable",
      "outputs": [
        {
          "internalType": "uint256",
          "name": "timeRemaining",
          "type": "uint256"
        }
      ],
      "stateMutability": "view",
      "type": "function"
    },
    {
      "inputs": [
        {
          "internalType": "address",
          "name": "_owner",
          "type": "address"
        },
        {
          "internalType": "uint256",
          "name": "_vaultId",
          "type": "uint256"
        }
      ],
      "name": "getVaultDetails",
      "outputs": [
        {
          "internalType": "uint256",
          "name": "heartbeat",
          "type": "uint256"
        },
        {
          "internalType": "uint256",
          "name": "lastPing",
          "type": "uint256"
        },
        {
          "internalType": "address",
          "name": "beneficiary",
          "type": "address"
        },
        {
          "internalType": "bool",
          "name": "claimed",
          "type": "bool"
        },
        {
          "internalType": "bool",
          "name": "isClaimable",
          "type": "bool"
        }
      ],
      "stateMutability": "view",
      "type": "function"
    },
    {
      "inputs": [
        {
          "internalType": "address",
          "name": "_owner",
          "type": "address"
        },
        {
          "internalType": "uint256",
          "name": "_vaultId",
          "type": "uint256"
        }
      ],
      "name": "hasVault",
      "outputs": [
        {
          "internalType": "bool",
          "name": "",
          "type": "bool"
        }
      ],
      "stateMutability": "view",
      "type": "function"
    },
    {
      "inputs": [
        {
          "internalType": "uint256",
          "name": "_vaultId",
          "type": "uint256"
        }
      ],
      "name": "ping",
      "outputs": [],
      "stateMutability": "nonpayable",
      "type": "function"
    },
    {
      "inputs": [
        {
          "internalType": "uint256",
          "name": "_vaultId",
          "type": "uint256"
        },
        {
          "internalType": "address",
          "name": "_newBeneficiary",
          "type": "address"
        }
      ],
      "name": "setBeneficiary",
      "outputs": [],
      "stateMutability": "nonpayable",
      "type": "function"
    },
    {
      "inputs": [
        {
          "internalType": "uint256",
          "name": "_vaultId",
          "type": "uint256"
        },
        {
          "internalType": "uint256",
          "name": "_newHeartbeat",
          "type": "uint256"
        }
      ],
      "name": "setHeartbeat",
      "outputs": [],
      "stateMutability": "nonpayable",
      "type": "function"
    },
    {
      "inputs": [
        {
          "internalType": "uint256",
          "name": "_vaultId",
          "type": "uint256"
        },
        {
          "internalType": "externalEuint256",
          "name": "_newSecret",
          "type": "bytes32"
        },
        {
          "internalType": "bytes",
          "name": "inputProof",
          "type": "bytes"
        }
      ],
      "name": "updateSecret",
      "outputs": [],
      "stateMutability": "nonpayable",
      "type": "function"
    },
    {
      "inputs": [
        {
          "internalType": "address",
          "name": "",
          "type": "address"
        }
      ],
      "name": "vaultCount",
      "outputs": [
        {
          "internalType": "uint256",
          "name": "",
          "type": "uint256"
        }
      ],
      "stateMutability": "view",
      "type": "function"
    }
  ],
  "bytecode": "0x60806040526001600255348015610014575f5ffd5b506100c96100206100ce565b80517f9e7b61f58c47dc699ac88507c4f5bb9f121c03808c5676a8078fe583e464970080546001600160a01b03199081166001600160a01b039384161790915560208301517f9e7b61f58c47dc699ac88507c4f5bb9f121c03808c5676a8078fe583e46497018054831691841691909117905560408301517f9e7b61f58c47dc699ac88507c4f5bb9f121c03808c5676a8078fe583e46497028054909216921691909117905550565b61023d565b604080516060810182525f808252602082018190529181019190915246600103610127575060408051606080820183525f8083526020808401829052928401819052835191820184528082529181018290529182015290565b4662aa36a7036101a6575060408051606080820183525f8083526020808401829052928401528251908101835273f0ffdc93b7e186bc2f8cb3daa75d86d1930a433d81527392c920834ec8941d2c77d188936e1f7a6f49c1279181019190915273be0e383937d564d7ff0bc3b46c51f0bf8d5c311a9181019190915290565b46617a6903610224575060408051606080820183525f8083526020808401829052928401528251908101835273f0ffdc93b7e186bc2f8cb3daa75d86d1930a433d81527392c920834ec8941d2c77d188936e1f7a6f49c1279181019190915273be0e383937d564d7ff0bc3b46c51f0bf8d5c311a9181019190915290565b6040516373cac13b60e01b815260040160405180910390fd5b6116578061024a5f395ff3fe608060405234801561000f575f5ffd5b5060043610610115575f3560e01c80638967fa69116100ad578063b178e5591161007d578063ba80380911610063578063ba80380914610283578063ea8d9377146102c3578063f6dd8930146102ce575f5ffd5b8063b178e5591461024d578063b469818814610270575f5ffd5b80638967fa69146101bd5780639038ff80146101d0578063a91fade8146101ef578063aad3ec961461023a575f5ffd5b80635a474954116100e85780635a4749541461017c5780636203cc6a1461018f578063773acdef146101a25780638927b030146101b5575f5ffd5b80631c846d59146101195780631f76d82c1461012e5780633a0f555d1461014957806359d3936b14610169575b5f5ffd5b61012c610127366004611336565b6102e1565b005b610136603c81565b6040519081526020015b60405180910390f35b61015c610157366004611360565b6104bd565b6040516101409190611379565b61012c610177366004611400565b610554565b61012c61018a36600461144f565b61069d565b61012c61019d366004611466565b6107ce565b61012c6101b036600461144f565b6108fe565b6101366109f6565b6101366101cb366004611486565b610a04565b6101366101de366004611360565b60016020525f908152604090205481565b6102026101fd3660046114e9565b610cd9565b6040805195865260208601949094526001600160a01b039092169284019290925290151560608301521515608082015260a001610140565b61012c6102483660046114e9565b610d90565b61026061025b366004611511565b610f0e565b6040519015158152602001610140565b61013661027e3660046114e9565b610fb7565b6102606102913660046114e9565b6001600160a01b03919091165f908152602081815260408083209383529290522060030154600160a01b900460ff1690565b61013663bbf81e0081565b6101366102dc3660046114e9565b611040565b600254600114610304576040516345f5ce8b60e11b815260040160405180910390fd5b60028055335f908152602081815260408083208584529091529020600301548290600160a01b900460ff1661034c5760405163dee790fb60e01b815260040160405180910390fd5b6001600160a01b0382166103a75760405162461bcd60e51b815260206004820152601360248201527f496e76616c69642062656e65666963696172790000000000000000000000000060448201526064015b60405180910390fd5b336001600160a01b038316036103ff5760405162461bcd60e51b815260206004820152601960248201527f43616e6e6f74206265206f776e2062656e656669636961727900000000000000604482015260640161039e565b335f9081526020818152604080832086845290915290206003810154600160a81b900460ff161561044357604051630c8d9eab60e31b815260040160405180910390fd5b6003810180547fffffffffffffffffffffffff0000000000000000000000000000000000000000166001600160a01b038516908117909155604051908152849033907f9295380f9fd45c521fda12b7b124edcae92ab976804ad01c26ccbdbc3c9108679060200160405180910390a3505060016002555050565b6001600160a01b0381165f908152600160205260409020546060908067ffffffffffffffff8111156104f1576104f161154a565b60405190808252806020026020018201604052801561051a578160200160208202803683370190505b5091505f5b8181101561054d578083828151811061053a5761053a61155e565b602090810291909101015260010161051f565b5050919050565b600254600114610577576040516345f5ce8b60e11b815260040160405180910390fd5b60028055335f908152602081815260408083208784529091529020600301548490600160a01b900460ff166105bf5760405163dee790fb60e01b815260040160405180910390fd5b335f9081526020818152604080832088845290915290206003810154600160a81b900460ff161561060357604051630c8d9eab60e31b815260040160405180910390fd5b5f6106438686868080601f0160208091040260200160405190810160405280939291908181526020018383808284375f9201919091525061111092505050565b905061064f813361111d565b506106598161112f565b50808255426002830155604051879033907f337c5ecd0d46e73e380492c330aaff0782b04f82846a7d4fdca6e8ccd48d625e905f90a3505060016002555050505050565b6002546001146106c0576040516345f5ce8b60e11b815260040160405180910390fd5b60028055335f908152602081815260408083208484529091529020600301548190600160a01b900460ff166107085760405163dee790fb60e01b815260040160405180910390fd5b335f9081526020818152604080832085845290915290206003810154600160a81b900460ff1661074b5760405163359699e560e01b815260040160405180910390fd5b335f81815260208181526040808320878452909152808220828155600181018390556002810183905560030180547fffffffffffffffffffff00000000000000000000000000000000000000000000169055518592917f80ecfd2332dc89779338fbe043a540171eef988ea66299b4f7be21ffcd4a9d3f91a35050600160025550565b6002546001146107f1576040516345f5ce8b60e11b815260040160405180910390fd5b60028055335f908152602081815260408083208584529091529020600301548290600160a01b900460ff166108395760405163dee790fb60e01b815260040160405180910390fd5b81603c81108061084c575063bbf81e0081115b1561086a57604051638f1825c960e01b815260040160405180910390fd5b335f9081526020818152604080832087845290915290206003810154600160a81b900460ff16156108ae57604051630c8d9eab60e31b815260040160405180910390fd5b60018101849055426002820155604051848152859033907fe00f3a9d5f4d22dfe10451bb6ad017220c1f6240342ab6c99fc7d9e0db4b60689060200160405180910390a350506001600255505050565b600254600114610921576040516345f5ce8b60e11b815260040160405180910390fd5b60028055335f908152602081815260408083208484529091529020600301548190600160a01b900460ff166109695760405163dee790fb60e01b815260040160405180910390fd5b335f9081526020818152604080832085845290915290206003810154600160a81b900460ff16156109ad57604051630c8d9eab60e31b815260040160405180910390fd5b4260028201819055604051908152839033907fdcc771264ff60ea7e7d5530d00c9e91f464ff8d3f9bcebe874cf0621b651115d9060200160405180910390a35050600160025550565b5f6109ff61113e565b905090565b5f600254600114610a28576040516345f5ce8b60e11b815260040160405180910390fd5b6002805585603c811080610a3f575063bbf81e0081115b15610a5d57604051638f1825c960e01b815260040160405180910390fd5b6001600160a01b038616610ab35760405162461bcd60e51b815260206004820152601360248201527f496e76616c69642062656e656669636961727900000000000000000000000000604482015260640161039e565b336001600160a01b03871603610b0b5760405162461bcd60e51b815260206004820152601960248201527f43616e6e6f74206265206f776e2062656e656669636961727900000000000000604482015260640161039e565b5f610b4b8686868080601f0160208091040260200160405190810160405280939291908181526020018383808284375f9201919091525061111092505050565b9050610b57813361111d565b50610b618161112f565b50335f908152600160205260408120805494508491610b7f83611586565b91905055506040518060c00160405280828152602001898152602001428152602001886001600160a01b031681526020016001151581526020015f15158152505f5f336001600160a01b03166001600160a01b031681526020019081526020015f205f8581526020019081526020015f205f820151815f015560208201518160010155604082015181600201556060820151816003015f6101000a8154816001600160a01b0302191690836001600160a01b0316021790555060808201518160030160146101000a81548160ff02191690831515021790555060a08201518160030160156101000a81548160ff021916908315150217905550905050866001600160a01b031683336001600160a01b03167fbe59fcfe2d040f046bae2a01d8b8c275e8ee105a1a0cc0314342babdd8cc222b8b604051610cc191815260200190565b60405180910390a45050600160025595945050505050565b6001600160a01b0382165f90815260208181526040808320848452909152812060038101548291829182918291600160a01b900460ff16610d2d5760405163dee790fb60e01b815260040160405180910390fd5b80600101548160020154610d41919061159e565b42118015610d5b57506003810154600160a81b900460ff16155b60018201546002830154600390930154909a9299506001600160a01b0381169850600160a81b900460ff169650945092505050565b600254600114610db3576040516345f5ce8b60e11b815260040160405180910390fd5b600280556001600160a01b0382165f9081526020818152604080832084845290915290206003810154600160a01b900460ff16610e035760405163dee790fb60e01b815260040160405180910390fd5b60038101546001600160a01b03163314610e305760405163ea8e4eb560e01b815260040160405180910390fd5b6003810154600160a81b900460ff1615610e5d57604051630c8d9eab60e31b815260040160405180910390fd5b80600101548160020154610e71919061159e565b4211610e9057604051633123d42760e11b815260040160405180910390fd5b8054610e9c903361111d565b506003810180547fffffffffffffffffffff00ffffffffffffffffffffffffffffffffffffffffff16600160a81b179055604051339083906001600160a01b038616907f7e6632ca16a0ac6cf28448500b1a17d96c8b8163ad4c4a9b44ef5386cc02779e905f90a45050600160025550565b6001600160a01b0383165f9081526020818152604080832085845290915281206003810154600160a01b900460ff16610f4a575f915050610fb0565b6003810154600160a81b900460ff1615610f67575f915050610fb0565b60038101546001600160a01b03848116911614610f87575f915050610fb0565b80600101548160020154610f9b919061159e565b4211610faa575f915050610fb0565b60019150505b9392505050565b6001600160a01b0382165f9081526020818152604080832084845290915281206003810154600160a01b900460ff166110035760405163dee790fb60e01b815260040160405180910390fd5b5f81600101548260020154611018919061159e565b905080421061102b575f9250505061103a565b61103542826115b1565b925050505b92915050565b6001600160a01b0382165f9081526020818152604080832084845290915281206003810154600160a01b900460ff1661108c5760405163dee790fb60e01b815260040160405180910390fd5b60038101546001600160a01b03858116339081149291821614905f90600160a81b900460ff16806110cf5750836001015484600201546110cc919061159e565b42115b9050821580156110e657508180156110e45750805b155b156111045760405163ea8e4eb560e01b815260040160405180910390fd5b50509054949350505050565b5f610fb083836008611172565b5f6111288383611292565b5090919050565b5f61113a8230611292565b5090565b5f4660010361114d5750600190565b4662aa36a70361115e575061271190565b46617a690361116d57505f1990565b505f90565b7f9e7b61f58c47dc699ac88507c4f5bb9f121c03808c5676a8078fe583e46497015460405163045fc19560e11b81525f917f9e7b61f58c47dc699ac88507c4f5bb9f121c03808c5676a8078fe583e4649700916001600160a01b03909116906308bf832a906111eb9088903390899089906004016115c4565b6020604051808303815f875af1158015611207573d5f5f3e3d5ffd5b505050506040513d601f19601f8201168201806040525081019061122b9190611633565b8154604051630f8e573b60e21b8152600481018390523360248201529193506001600160a01b031690633e395cec906044015f604051808303815f87803b158015611274575f5ffd5b505af1158015611286573d5f5f3e3d5ffd5b50505050509392505050565b5f7f9e7b61f58c47dc699ac88507c4f5bb9f121c03808c5676a8078fe583e46497008054604051635ca4b5b160e11b8152600481018690526001600160a01b03858116602483015292935091169063b9496b62906044015f604051808303815f87803b158015611300575f5ffd5b505af1158015611312573d5f5f3e3d5ffd5b50505050505050565b80356001600160a01b0381168114611331575f5ffd5b919050565b5f5f60408385031215611347575f5ffd5b823591506113576020840161131b565b90509250929050565b5f60208284031215611370575f5ffd5b610fb08261131b565b602080825282518282018190525f918401906040840190835b818110156113b0578351835260209384019390920191600101611392565b509095945050505050565b5f5f83601f8401126113cb575f5ffd5b50813567ffffffffffffffff8111156113e2575f5ffd5b6020830191508360208285010111156113f9575f5ffd5b9250929050565b5f5f5f5f60608587031215611413575f5ffd5b8435935060208501359250604085013567ffffffffffffffff811115611437575f5ffd5b611443878288016113bb565b95989497509550505050565b5f6020828403121561145f575f5ffd5b5035919050565b5f5f60408385031215611477575f5ffd5b50508035926020909101359150565b5f5f5f5f5f6080868803121561149a575f5ffd5b853594506114aa6020870161131b565b935060408601359250606086013567ffffffffffffffff8111156114cc575f5ffd5b6114d8888289016113bb565b969995985093965092949392505050565b5f5f604083850312156114fa575f5ffd5b6115038361131b565b946020939093013593505050565b5f5f5f60608486031215611523575f5ffd5b61152c8461131b565b9250602084013591506115416040850161131b565b90509250925092565b634e487b7160e01b5f52604160045260245ffd5b634e487b7160e01b5f52603260045260245ffd5b634e487b7160e01b5f52601160045260245ffd5b5f6001820161159757611597611572565b5060010190565b8082018082111561103a5761103a611572565b8181038181111561103a5761103a611572565b8481526001600160a01b0384166020820152608060408201525f8351806080840152806020860160a085015e5f60a0828501015260a0601f19601f8301168401019150506054831061162457634e487b7160e01b5f52602160045260245ffd5b82606083015295945050505050565b5f60208284031215611643575f5ffd5b505191905056fea164736f6c634300081b000a",
  "linkReferences": {},
  "deployedLinkReferences": {}
}